:1000000019C028C027C0DDC125C024C023C022C01C
:1000100021C04CC21FC01EC01DC01CC01BC01AC0C6
:1000200019C064C217C016C015C014C013C012C0D6
:1000300011C010C011241FBECFEFCDBFDFE3DEBF64
:100040002FE3A0E8BFE301C01D92A939B207E1F791
:1000500030D06FC2D5CF1092873F1092883F209149
:10006000873F3091883F2817390740F400002091DE
:10007000873F3091883F28173907C0F31092873F98
:100080001092883F0895E82FF0E0FC5E6083F894BA
:100090008DE984BF83E080930010789480910210F2
:1000A00081FF06C0E2E0F0E10000808181FDFCCF2D
:1000B000089586E38093000480E88093040487E039
:1000C0008093200488E0809333041092240482E01B
:1000D0008093130498ED94BF1092600094BF109227
:1000E000610095E0909300061092010694E59093CC
:1000F000020690E390930306109204061092050600
:100100001092090691E090930A0626E020930606D5
:100110002BE02093000A20E62093010A1092020AA5
:100120009093030A80930A0A8FEF8093270A109214
:10013000260A84E680932B0A80932D0A809100146E
:1001400080938A3F809101148093893F7894C8E21C
:10015000D4E00F2EF5E2AF2EF4E0BF2EF02D689420
:10016000552452F80F2EF6E26F2EF4E07F2EF02D7C
:100170000F2EFEE13F2EF02D22242A940F2EFBE2BB
:100180008F2EFAE09F2EF02D0F2EFDE2CF2EFAE0FB
:10019000DF2EF02D0F2EF6E0EF2EFE2CF02D0F2E81
:1001A000F6E04F2EF02D08E016E08091873F909109
:1001B000883F0C97D0F31092873F1092883F888138
:1001C00083FF0EC08091853F8550833C48F461E0F9
:1001D00080918A3F811160E060938A3F80E053DF25
:1001E0008091853F883C61F561E08091893F811174
:1001F00060E06093893F81E046DF8091893F8823FA
:10020000A9F0F50150828AEF90E025DFF3015082DA
:100210008AEF90E020DFF50150828AEF90E01BDF4B
:10022000F30150828AEF90E016DF0AC0F501508298
:1002300084EF91E010DFF301508284EF91E00BDF57
:10024000888183FD06C08091853F8F3F19F08F5FC5
:1002500001C080E08093853F8091933F9091943FCF
:100260002091973FAC01529542954F7045275F70A2
:100270004527841B950BF0E12F9F800D911D1124C4
:100280008093933F9093943F4091953F5091963F38
:100290002091983FBA01620F711D9B01452F552790
:1002A000241B350B2093953F3093963F4091893F17
:1002B000442359F1232F3327492F5527249FC00169
:1002C000259F900D349F900D1124880F892F881F32
:1002D000990B919580938F3F9093903F8E3191052C
:1002E00018F43092913F09C08F3F910521F018F02A
:1002F0002092913F02C08093913F80918A3F81116B
:100300008091913F8093923F0EC09E3118F0909360
:10031000913F02C03092913F80918A3F811180913C
:10032000913F8093923F80918D3F90918E3F9C01B1
:1003300036952795329522952F7023273F702327D6
:10034000821B930B2091923F78E0279F800D911D97
:10035000112480938D3F90938E3F80918B3F90919D
:100360008C3F9C0136952795329522952F70232737
:100370003F702327821B930B2091913FE8E02E9F33
:10038000800D911D112480938B3F90938C3F809121
:10039000863F882329F0F50150821092863F02C0E3
:1003A000F301508280918C3FF401808380918E3FD5
:1003B0008095F6018083F701408281E0F801808317
:1003C000F4CE1F920F920FB60F9211242F938F939A
:1003D0009F93EF93FF938091090483FF54C0809112
:1003E000843F8F3F19F41092843F4DC08F5F8093FC
:1003F000843F8091833F873870F11092833F8091D2
:10040000823F833008F045C08F5F8093823F813008
:1004100069F028F0823089F08330B1F01FC081E0AC
:100420008093250482E08093260418C0E5E2F4E07E
:1004300081E0808382E0808311C081E08093260484
:1004400082E0809325040AC0E6E2F4E081E0808344
:1004500082E0808303C08F5F8093833F8091803FE1
:100460009091813F8F3F2FE7920730F40196809360
:10047000803F9093813F07C01092803F1092813F50
:1004800081E08093863FE9E0F4E080818FEF808314
:1004900003C01092823FC3CFFF91EF919F918F9144
:1004A0002F910F900FBE0F901F9018951F920F92D3
:1004B0000FB60F9211248F939F93EF93FF93809128
:1004C000873F9091883F01968093873F9093883F24
:1004D000EBE0FAE080818FEF8083FF91EF919F91B5
:1004E0008F910F900FBE0F901F9018951F920F9233
:1004F0000FB60F9211248F9380910606863061F417
:100500008091100680958093973F87E08093060640
:1005100081E08093080607C0809110068093983F81
:1005200086E0809306068F910F900FBE0F901F906C
:060530001895F894FFCFBE
:00000001FF
